:100BF9004D6F6E0054756500576564005468750043
:100C0900467269005361740053756E0052657374BE
:100C19006F7265642074696D652066726F6D204519
:100C29004550524F4D0D0A005573696E6720707219
:100C3900657365742074696D650D0A002020007361
:100C490065743A0054696D652075706461746564F2
:100C59000D0A00616C61726D3A00416C61726D2020
:0C0C690073657420746F3A20000D0A00BF
:10088C0042007D0000420039000042002707EA4286
:10089C00001F0009420033000B42003500084200E3
:1008AC003700014200310000420025000042002BBD
:1008BC0000004200230005550068FF0BF9FF0BFDFB
:1008CC00FF0C01FF0C05FF0C09FF0C0DFF0C114C6C
:1008DC00003C1F1C1F1E1F1E1F1F1E1F1E1FC101A1
:1008EC00C100C103C10241001E0041007F00410054
:1008FC00140041003B0041001C0042002900004252
:10090C000021000042008000004100170041001D42
:10091C0000410000004100010041001600410002AE
:10092C00014C00031F1C1F1E1F1E1F1F1E1F1E1FFE
:10093C004100150042000F0000410011004200125E
:02094C000000A9
:040E6200B290AF0497
:100E6600AE071FEE600C000000000000000000004E
:030E760080EE22E9
:100D2B00EF24FE601414601E240270267C19E4FD6F
:100D3B00120E620DEDB402F8227C11E4FD120E626C
:100D4B000DEDB402F8227C0CE4FD120E620DEDB435
:020D5B0002F89C
:010D5D002273
:0506AD00900016E0FFC3
:1006B200EF7052900035E0FEA3E0FF7C007D0A124D
:1006C20007DF900090EFF0900035E0FEA3E0FF7CA2
:1006D200007D0A1207DF900091EDF0900037E0FEF6
:1006E200A3E0FF7C007D0A1207DF900092EFF090FA
:1006F2000037E0FEA3E0FF7C007D0A1207DF9000D6
:1007020093EDF0804FEF6401704A90001FE0FAA36E
:10071200E0FB7C007D0AFFAE021207DF900090EF43
:10072200F07C007D0AAF03AE021207DFA3EDF0906A
:100732000033E0FAA3E0FB7C007D0AFFAE02120761
:10074200DF900092EFF07C007D0AAF03AE02120749
:10075200DFA3EDF0900000E0C39402404EE4F0D23B
:10076200A3D2A2D2A1D2A0A3E0FF2490F582E434C6
:1007720000F583E02483F582E43400F583E0F5801C
:10078200EF14600E14600F1460102403700EC2A3E5
:10079200800AC2A28006C2A18002C2A0900001E02B
:1007A20004F0E0C394044009E4F022900000E00465
:0107B200F056
:0107B3002223
:070EE200D2A9D2ACD2AF226D
:0C0ECB00758921758CFC758A18D28C2268
:100E1600900002E0601520B4127F647E00120ED7A7
:100E260020B411E4900002F07F012230B406900055
:060E3600027401F07F00D0
:010E3C002293
:0F0EAD00900016E0700304F022E4900016F0228B
:0F0EBC00759850758780758BF3858B8DD28E223C
:100C750090001FE0FEA3E02402F58274003EF58398
:100C8500E0FFD3900034E09F7480F8900033E06477
:100C950080984037E4F0A304F0900020E004F07061
:100CA5000690001FE004F0D3900020E0940C900023
:100CB5001FE0648094804013E4F0A304F0900028C2
:0B0CC500E004F07006900027E004F04F
:010CD0002201
:100AFB007F007E20120E79900031E4F0A3EFF07F9F
:100B0B00017E20120E79900037E4F0A3EFF07F0204
:100B1B007E20120E79900035E4F0A3EFF07F037E78
:100B2B0020120E79900033E4F0A3EFF07F047E20C7
:100B3B00120E7990001FE4F0A3EFF07F057E2012D8
:100B4B000E79EF7F00FEC006C0077F067E20120ED7
:100B5B0079EFFDD0E02DFED0E03400900027F0A31C
:100B6B00CEF07F077E20120E79900039E4F0A3EFD0
:020B7B00F02266
:100B7D00900031A3E0FD7F007E2012000E90003723
:100B8D00A3E0FD7F017E2012000E900035A3E0FD55
:100B9D007F027E2012000E900033A3E0FD7F037EC6
:100BAD002012000E90001FA3E0FD7F047E20120096
:100BBD000E900027E0FEA3E0FF7C017D001207DF11
:100BCD00AD077F057E2012000E900027E0FEA3E00A
:100BDD00FF7C017D001207DF7F067E2012000E9044
:0C0BED000039A3E0FD7F077E2002000E0F
:1000260075E13543E110120E9D120ECB120EBC1275
:100036000EE2D290C2027F007E22120E7990001547
:10004600EFF0BF010E120AFB7BFF7A0C7915120D39
:10005600EA80237BFF7A0C7931120DEA7F007E203D
:10006600120E8C120B7D7F007E22120E8C7D017F7C
:10007600007E2212000ED2A7D2A6D2A5D2A4E49068
:10008600007FF090007FE0FFC39404502074182F87
:10009600F582E43400F583E4F0742D2FF582E43420
:1000A60000F583E4F090007FE004F080D6E4900051
:1000B6001CF0900022E004F07006900021E004F0AD
:1000C6001206AD300308C2031202F51209EC9000C5
:1000D60029E475F001120815FEC3E5F09496EE9436
:1000E6000050030201D2E4900029F0A3F090007FB3
:1000F600F090007FE0FFC3940440030201D2900019
:100106001CE0FEEF6E600302018D90007FE0242D5F
:10011600F582E43400F583E0703174182FF582E43B
:100126003400F583E0C3940990007FE0500F241853
:10013600F582E43400F583E004F00201C9242DF5CC
:1001460082E43400F5837401F0807890007FE0FF4C
:100156002418F582E43400F583E0D39400400F744C
:10016600182FF582E43400F583E014F080559000F2
:100176007FE0242DF582E43400F583E4F0EE0454A8
:100186000390001CF0803C90007FE02418F582E488
:100196003400F583E0FFD394004019EFD394024076
:1001A6002290007FE02418F582E43400F583E024F1
:1001B600FEF0800F90007FE02418F582E43400F50D
:1001C60083E4F090007FE004F00200F7300114C2EF
:1001D600011209ECE4F5E1FF7E20120E8C120B7D74
:1001E60075E13530026290007DE07002A3E0705840
:1001F600200055900025E0FEA3E0FF900035E0B515
:100206000646A3E0B5074190002BE0FEA3E0FF9071
:100216000037E0B50632A3E0B5072D900023E0FED7
:10022600A3E0FFC3900032E09FEE6480F8900031B7
:10023600E06480984012D200E4900080F0A3F09031
:10024600001EF090001D04F02000030202D890006A
:1002560080E0FEA3E0FFC394F4EE94015008900002
:100266001D7401F0801AC3EF94E8EE9403500B431B
:10027600E11090001D7402F0800690001D7403F0DA
:1002860090001DE0FF120D2B900081E004F0700637
:10029600900080E004F0C3900081E094DC90008040
:1002A600E09405400CC200D29090007DE4F0A304D7
:1002B600F020B21E7FE87E03120ED720B214C200D1
:1002C600D29090007DE4F0A304F020B2051206ADB2
:1002D60080F8900022E004F07006900021E004F01F
:0F02E600120E16EF70030200B8120EAD0200B830
:03000B000204FAF2
:1004FA00C0E0C0F0C083C082C0D075D000C000C0C8
:03050A0006C00721
:10050D00758CFC758A18900012E475F001120815AF
:10051D00FEC3E5F09464EE9400401C900012E4F0EC
:10052D00A3F0900022E09402900021E09400400797
:10053D00E4F0A3F043E110900010E004F070069099
:10054D00000FE004F0C3900010E094E890000FE07D
:10055D0094035003020650E4F0A3F0900032E0043F
:10056D00F07006900031E004F0C3900032E0943C4E
:10057D00900031E064809480500302064EE4F0A3B5
:10058D00F0900038E004F07006900037E004F0C3FE
:10059D00900038E0943C900037E0648094805003E4
:1005AD0002064EE4F0A3F0900036E004F0700690E1
:1005BD000035E004F0C3900036E09418900035E06B
:1005CD0064809480407BE4F0A3F0900034E004F06C
:1005DD007006900033E004F090003AE004F07006ED
:1005ED00900039E004F090001FE0FEA3E0243BF5FD
:1005FD008274003EF583E0FFD3900034E09F748059
:10060D00F8900033E06480984037E4F0A304F09054
:10061D000020E004F0700690001FE004F0D390007D
:10062D0020E0940C90001FE0648094804013E4F06F
:10063D00A304F0900028E004F07006900027E00479
:10064D00F0D201900011E004F0E0C3940A4002E4FE
:10065D00F0900011E0FF900018E0D39F4002800160
:10066D00D392A4900019E0D39F40028001D392A5AC
:10067D00900011E0FF90001AE0D39F40028001D35B
:0F068D0092A690001BE0D39F40028001D392A75A
:10069C00D007D006D000D0D0D082D083D0F0D0E01C
:0106AC00321B
:03002300020CD1FB
:0F0CD100C0E0C083C082C0D075D000C006C0078D
:100CE00030983BAF99900014E0C3941F5015EF6407
:100CF0000A6010E0FE04F074482EF582E43400F53A
:100D000083EFF0EFB40A15900014E02448F582E474
:0E0D10003400F583E4F0900014F0D203C29892
:0D0D1E00D007D006D0D0D082D083D0E032F4
:100DBE00900095EBF0A3EAF0A3E9F0900095E0FB2C
:100DCE00A3E0FAA3E0F91207B4FF600F120E5590DC
:0C0DDE000096E475F00112081580E02278
:100E3D0090008DE0FEA3E0FF7C001207DF7C007DBB
:080E4D000A1207DFED2430FF5B
:0D0E55008F992099051206AD80F8C29922F0
:100DEA0090008DEBF0A3EAF0A3E9F090008DE0FB10
:100DFA00A3E0FAA3E0F91207B4FF600F120E5590B0
:0C0E0A00008EE475F00112081580E02253
:050D5E00E0FEA3E0FF30
:100D630090008DEEF0A3EFF07C007D0A1207DFEF19
:100D73002430FF120E5590008DE0FEA3E0FF7C00AF
:0C0D83007D0A1207DFED2430FF020E5540
:100D8F0090008DEEF0A3EFF07C037DE8120E477D0F
:100D9F0064120E3D7D0A120E3D90008DE0FEA3E021
:0F0DAF00FF7C007D0A1207DFED2430FF020E5596
:1009EC00900027E0FEA3E0FF120D8F7F2D120E5515
:1009FC0090001F120D5E7F2D120E55900033120DBC
:100A0C005E7BFF7A0C7945120DEA900035120D5E73
:100A1C007F3A120E55900037120D5E7F3A120E552A
:100A2C00900031120D5E7F20120E5590003AE0249A
:100A3C0003FF900039E03400FE7C007D071207DFD5
:100A4C0090006875F003ED12082BEC75F003A425EB
:100A5C0083F583E0FBA3E0FAA3E0F9120DEA7F0D26
:080A6C00120E557F0A020E551F
:1002F50090009074FFF0A3740CF0A37448F0A3E48D
:10030500F0A37404F07B017A007948120A74EF6057
:100315000302043090004DE024D0FFE434FFFE7C5E
:10032500007D641207CDAA06AB0790004CE024D0EF
:10033500FFE434FFFE7C037DE81207CDEF2BFBEED7
:100345003AFA90004EE024D0FFE434FFFE7C007DB5
:100355000A1207CDEF2BFFEE3AFEA3E024D0FDEC09
:1003650034FFCD2FFFED3E900027F0A3EFF0900076
:1003750051E024D0FFE434FFFE7D0A1207CDA3E04F
:1003850024D0FDEC34FFCD2FFFED3E90001FF0A3F0
:10039500EFF0900054E024D0FFE434FFFE7D0A1214
:1003A50007CDA3E024D0FDEC34FFCD2FFFED3E902B
:1003B5000033F0A3EFF0900057E024D0FFE434FFC2
:1003C500FE7D0A1207CDA3E024D0FDEC34FFCD2F2E
:1003D500FFED3E900035F0A3EFF090005AE024D0F9
:1003E500FFE434FFFE7D0A1207CDA3E024D0FDEC27
:1003F50034FFCD2FFFED3E900037F0A3EFF09000D6
:100405005DE024D0FFE434FFFE7D0A1207CDA3E0B2
:1004150024D0FDEC34FFCD2FFFED3E900031F0A34D
:10042500EFF07BFF7A0C794D0204F690009074FF93
:10043500F0A3740CF0A3745CF0A3E4F0A37406F0CD
:100445007B017A007948120A74EF60030204F9907F
:10045500004EE024D0FFE434FFFE7C007D0A120745
:10046500CDA3E024D0FDEC34FFCD2FFFED3E900071
:1004750025F0A3EFF0900051E024D0FFE434FFFE17
:100485007D0A1207CDA3E024D0FDEC34FFCD2FFF6C
:10049500ED3E90002BF0A3EFF0900054E024D0FF48
:1004A500E434FFFE7D0A1207CDA3E024D0FDEC3431
:1004B500FFCD2FFFED3E900023F0A3EFF0D202E435
:1004C50090007DF0A3F07BFF7A0C7963120DEA9022
:1004D5000025120D5E7F3A120E5590002B120D5E0F
:1004E5007F3A120E55900023120D5E7BFF7A0C7930
:0504F50072120DEA2265
:10094E004A0083039F250D9949411F0109410082E9
:01095E000098
:100E9D00E4F580D2A3D2A2D2A1D2A0900082F022FA
:0B0ED700EF1FAC0670011E4C70F622ED
:070EE90075E64675E6B9222B
:08000300E4F5E7F5E5F5E6225E
:100E790075E78175E5018FE4EEF5E3120EE9AFE25E
:030E890002000361
:100E8C0075E78175E5038FE4EEF5E3120EE90200D8
:010E9C000352
:10000E0075E78175E5028FE4EEF5E3AF058FE21239
:05001E000EE9020003E1
:0300000002096092
:0C096000787FE4F6D8FD7581200209A71D
:1007B400BB010689828A83E0225002E722BBFE0243
:0907C400E32289828A83E4932276
:1007CD00EF8DF0A4A8F0CF8CF0A428CE8DF0A42E40
:0207DD00FE22FA
:1007DF00C2D5EC30E709B2D5E4C39DFDE49CFCEE35
:1007EF0030E715B2D5E4C39FFFE49EFE120837C36E
:1007FF00E49DFDE49CFC800312083730D507C3E469
:06080F009FFFE49EFE22A3
:10081500C5F0F8A3E028F0C5F0F8E582158270026E
:060825001583E038F0220B
:0C082B00A42582F582E5F03583F58322D8
:100A740090008DEBF0A3EAF0A3E9F0900090E0FB86
:100A8400A3E0FAA3E0F91207B4FE90008DE0FBA303
:100A9400E0FAA3E0F91207B4FF6E702AEF600E903B
:100AA400009374FFF5F012081545F070037F0022DF
:100AB40090008EE475F001120815900091E475F031
:100AC4000112081580B590008DE0FBA3E0FAA3E0C5
:100AD400F91207B4FDD3EE6480F8ED648098400306
:100AE4007F0122900090E0FBA3E0FAA3E0F9120753
:070AF400B4FFC3ED9FFF22D8
:10096C00020026E493A3F8E493A34003F68001F27B
:10097C0008DFF48029E493A3F85407240CC8C3338C
:10098C00C4540F4420C8834004F456800146F6DF5B
:10099C00E4800B010204081020408090088CE47E57
:1009AC00019360BCA3FF543F30E509541FFEE49350
:1009BC00A360010ECF54C025E060A840B8E493A317
:1009CC00FAE493A3F8E493A3C8C582C8CAC583CA42
:1009DC00F0A3C8C582C8CAC583CADFE9DEE780BEFA
:01095F000097
:10083700BC000BBE0029EF8DF084FFADF022E4CCA5
:10084700F875F008EF2FFFEE33FEEC33FCEE9DEC6E
:10085700984005FCEE9DFE0FD5F0E9E4CEFD22EDB4
:10086700F8F5F0EE8420D21CFEADF075F008EF2FFE
:10087700FFED33FD4007985006D5F0F222C398FDEF
:050887000FD5F0EA228C
:00000001FF
